{
  "contractName": "Projects",
  "abi": [
    {
      "constant": true,
      "inputs": [],
      "name": "projectCount",
      "outputs": [
        {
          "name": "",
          "type": "uint256"
        }
      ],
      "payable": false,
      "stateMutability": "view",
      "type": "function"
    },
    {
      "constant": true,
      "inputs": [
        {
          "name": "",
          "type": "uint256"
        }
      ],
      "name": "Ita",
      "outputs": [
        {
          "name": "",
          "type": "address"
        }
      ],
      "payable": false,
      "stateMutability": "view",
      "type": "function"
    },
    {
      "constant": true,
      "inputs": [
        {
          "name": "",
          "type": "uint256"
        }
      ],
      "name": "Projectmap",
      "outputs": [
        {
          "name": "title",
          "type": "string"
        },
        {
          "name": "idea",
          "type": "string"
        },
        {
          "name": "fund",
          "type": "uint256"
        }
      ],
      "payable": false,
      "stateMutability": "view",
      "type": "function"
    },
    {
      "constant": true,
      "inputs": [
        {
          "name": "",
          "type": "address"
        }
      ],
      "name": "Ati",
      "outputs": [
        {
          "name": "",
          "type": "uint256"
        }
      ],
      "payable": false,
      "stateMutability": "view",
      "type": "function"
    },
    {
      "constant": false,
      "inputs": [
        {
          "name": "t",
          "type": "string"
        },
        {
          "name": "i",
          "type": "string"
        },
        {
          "name": "f",
          "type": "uint256"
        }
      ],
      "name": "setProject",
      "outputs": [],
      "payable": false,
      "stateMutability": "nonpayable",
      "type": "function"
    },
    {
      "constant": true,
      "inputs": [
        {
          "name": "a",
          "type": "address"
        }
      ],
      "name": "getProjectbyaddress",
      "outputs": [
        {
          "name": "",
          "type": "string"
        },
        {
          "name": "",
          "type": "string"
        },
        {
          "name": "",
          "type": "uint256"
        }
      ],
      "payable": false,
      "stateMutability": "view",
      "type": "function"
    }
  ],
  "bytecode": "0x608060405234801561001057600080fd5b50610a58806100206000396000f300608060405260043610610078576000357c0100000000000000000000000000000000000000000000000000000000900463ffffffff16806336fbad261461007d578063745c4f94146100a857806385d67c1e146101615780638f1c076a14610290578063b82558e1146102fd578063d890e9bf14610416575b600080fd5b34801561008957600080fd5b5061009261046d565b6040518082815260200191505060405180910390f35b3480156100b457600080fd5b5061015f600480360381019080803590602001908201803590602001908080601f0160208091040260200160405190810160405280939291908181526020018383808284378201915050505050509192919290803590602001908201803590602001908080601f016020809104026020016040519081016040528093929190818152602001838380828437820191505050505050919291929080359060200190929190505050610473565b005b34801561016d57600080fd5b506101a2600480360381019080803573ffffffffffffffffffffffffffffffffffffffff16906020019092919050505061059b565b604051808060200180602001848152602001838103835286818151815260200191508051906020019080838360005b838110156101ec5780820151818401526020810190506101d1565b50505050905090810190601f1680156102195780820380516001836020036101000a031916815260200191505b50838103825285818151815260200191508051906020019080838360005b83811015610252578082015181840152602081019050610237565b50505050905090810190601f16801561027f5780820380516001836020036101000a031916815260200191505b509550505050505060405180910390f35b34801561029c57600080fd5b506102bb600480360381019080803590602001909291905050506107e2565b604051808273ffffffffffffffffffffffffffffffffffffffff1673ffffffffffffffffffffffffffffffffffffffff16815260200191505060405180910390f35b34801561030957600080fd5b5061032860048036038101908080359060200190929190505050610815565b604051808060200180602001848152602001838103835286818151815260200191508051906020019080838360005b83811015610372578082015181840152602081019050610357565b50505050905090810190601f16801561039f5780820380516001836020036101000a031916815260200191505b50838103825285818151815260200191508051906020019080838360005b838110156103d85780820151818401526020810190506103bd565b50505050905090810190601f1680156104055780820380516001836020036101000a031916815260200191505b509550505050505060405180910390f35b34801561042257600080fd5b50610457600480360381019080803573ffffffffffffffffffffffffffffffffffffffff16906020019092919050505061096f565b6040518082815260200191505060405180910390f35b60035481565b6003600081548092919060010191905055506003546000803373ffffffffffffffffffffffffffffffffffffffff1673ffffffffffffffffffffffffffffffffffffffff168152602001908152602001600020819055503360016000600354815260200190815260200160002060006101000a81548173ffffffffffffffffffffffffffffffffffffffff021916908373ffffffffffffffffffffffffffffffffffffffff16021790555060606040519081016040528084815260200183815260200182815250600260006003548152602001908152602001600020600082015181600001908051906020019061056b929190610987565b506020820151816001019080519060200190610588929190610987565b5060408201518160020155905050505050565b6060806000600260008060008773ffffffffffffffffffffffffffffffffffffffff1673ffffffffffffffffffffffffffffffffffffffff168152602001908152602001600020548152602001908152602001600020600001600260008060008873ffffffffffffffffffffffffffffffffffffffff1673ffffffffffffffffffffffffffffffffffffffff168152602001908152602001600020548152602001908152602001600020600101600260008060008973ffffffffffffffffffffffffffffffffffffffff1673ffffffffffffffffffffffffffffffffffffffff16815260200190815260200160002054815260200190815260200160002060020154828054600181600116156101000203166002900480601f0160208091040260200160405190810160405280929190818152602001828054600181600116156101000203166002900480156107325780601f1061070757610100808354040283529160200191610732565b820191906000526020600020905b81548152906001019060200180831161071557829003601f168201915b50505050509250818054600181600116156101000203166002900480601f0160208091040260200160405190810160405280929190818152602001828054600181600116156101000203166002900480156107ce5780601f106107a3576101008083540402835291602001916107ce565b820191906000526020600020905b8154815290600101906020018083116107b157829003601f168201915b505050505091509250925092509193909250565b60016020528060005260406000206000915054906101000a900473ffffffffffffffffffffffffffffffffffffffff1681565b6002602052806000526040600020600091509050806000018054600181600116156101000203166002900480601f0160208091040260200160405190810160405280929190818152602001828054600181600116156101000203166002900480156108c15780601f10610896576101008083540402835291602001916108c1565b820191906000526020600020905b8154815290600101906020018083116108a457829003601f168201915b505050505090806001018054600181600116156101000203166002900480601f01602080910402602001604051908101604052809291908181526020018280546001816001161561010002031660029004801561095f5780601f106109345761010080835404028352916020019161095f565b820191906000526020600020905b81548152906001019060200180831161094257829003601f168201915b5050505050908060020154905083565b60006020528060005260406000206000915090505481565b828054600181600116156101000203166002900490600052602060002090601f016020900481019282601f106109c857805160ff19168380011785556109f6565b828001600101855582156109f6579182015b828111156109f55782518255916020019190600101906109da565b5b509050610a039190610a07565b5090565b610a2991905b80821115610a25576000816000905550600101610a0d565b5090565b905600a165627a7a72305820bf5cdbea511d9cae5f38c02d380ed29c236360491028163cb254191faa9f2a9e0029",
  "source": "pragma solidity 0.4.25;\n\n// import \"./Team.sol\";\n\ncontract Projects {\n    \n    struct Project {\n        \n        string title;\n        string idea;\n        uint fund;\n        \n    }\n    \n    mapping(address => uint) public Ati;\n    mapping(uint => address)public Ita;\n    mapping(uint => Project) public Projectmap;\n    uint public projectCount;\n    \n    function setProject(string t,string i,uint f) public {\n        projectCount++;\n        Ati[msg.sender]=projectCount;\n        Ita[projectCount]=msg.sender;\n        Projectmap[projectCount] = Project(t,i,f);\n    }\n\n    function getProjectbyaddress(address a) public view returns(string,string,uint){\n        return (Projectmap[Ati[a]].title,Projectmap[Ati[a]].idea,Projectmap[Ati[a]].fund);\n    }\n    \n}",
  "sourcePath": "/home/pratik/Desktop/BlockChain/CrowdFund/contracts/Project.sol",
  "compiler": {
    "name": "solc",
    "version": "0.4.25+commit.59dbf8f1.Emscripten.clang"
  },
  "schemaVersion": "2.0.2",
  "updatedAt": "2019-02-02T21:54:29.816Z"
}