{
  "contractName": "Teams",
  "abi": [
    {
      "constant": true,
      "inputs": [],
      "name": "teamcount",
      "outputs": [
        {
          "name": "",
          "type": "uint256"
        }
      ],
      "payable": false,
      "stateMutability": "view",
      "type": "function"
    },
    {
      "constant": true,
      "inputs": [
        {
          "name": "",
          "type": "uint256"
        }
      ],
      "name": "Teammapint",
      "outputs": [
        {
          "name": "TeamName",
          "type": "string"
        },
        {
          "name": "firstMemberName",
          "type": "string"
        },
        {
          "name": "secondMemberName",
          "type": "string"
        },
        {
          "name": "thirdMemberName",
          "type": "string"
        },
        {
          "name": "fourthMemberName",
          "type": "string"
        },
        {
          "name": "firstcid",
          "type": "uint256"
        },
        {
          "name": "secondcid",
          "type": "uint256"
        },
        {
          "name": "thirdcid",
          "type": "uint256"
        },
        {
          "name": "fourthcid",
          "type": "uint256"
        }
      ],
      "payable": false,
      "stateMutability": "view",
      "type": "function"
    },
    {
      "constant": true,
      "inputs": [
        {
          "name": "",
          "type": "uint256"
        }
      ],
      "name": "Teammapaddr",
      "outputs": [
        {
          "name": "",
          "type": "address"
        }
      ],
      "payable": false,
      "stateMutability": "view",
      "type": "function"
    },
    {
      "constant": true,
      "inputs": [
        {
          "name": "",
          "type": "address"
        }
      ],
      "name": "Teammap",
      "outputs": [
        {
          "name": "TeamName",
          "type": "string"
        },
        {
          "name": "firstMemberName",
          "type": "string"
        },
        {
          "name": "secondMemberName",
          "type": "string"
        },
        {
          "name": "thirdMemberName",
          "type": "string"
        },
        {
          "name": "fourthMemberName",
          "type": "string"
        },
        {
          "name": "firstcid",
          "type": "uint256"
        },
        {
          "name": "secondcid",
          "type": "uint256"
        },
        {
          "name": "thirdcid",
          "type": "uint256"
        },
        {
          "name": "fourthcid",
          "type": "uint256"
        }
      ],
      "payable": false,
      "stateMutability": "view",
      "type": "function"
    },
    {
      "inputs": [],
      "payable": false,
      "stateMutability": "nonpayable",
      "type": "constructor"
    },
    {
      "constant": false,
      "inputs": [
        {
          "name": "Tn",
          "type": "string"
        },
        {
          "name": "fn",
          "type": "string"
        },
        {
          "name": "sn",
          "type": "string"
        },
        {
          "name": "tn",
          "type": "string"
        },
        {
          "name": "ftn",
          "type": "string"
        },
        {
          "name": "fid",
          "type": "uint256"
        },
        {
          "name": "sid",
          "type": "uint256"
        },
        {
          "name": "tid",
          "type": "uint256"
        },
        {
          "name": "ftid",
          "type": "uint256"
        }
      ],
      "name": "setTeam",
      "outputs": [],
      "payable": false,
      "stateMutability": "nonpayable",
      "type": "function"
    },
    {
      "constant": true,
      "inputs": [],
      "name": "getTeam",
      "outputs": [
        {
          "name": "",
          "type": "string"
        },
        {
          "name": "",
          "type": "string"
        },
        {
          "name": "",
          "type": "string"
        },
        {
          "name": "",
          "type": "string"
        },
        {
          "name": "",
          "type": "string"
        },
        {
          "name": "",
          "type": "uint256"
        },
        {
          "name": "",
          "type": "uint256"
        },
        {
          "name": "",
          "type": "uint256"
        },
        {
          "name": "",
          "type": "uint256"
        }
      ],
      "payable": false,
      "stateMutability": "view",
      "type": "function"
    }
  ],
  "bytecode": "0x608060405234801561001057600080fd5b50336000806101000a81548173ffffffffffffffffffffffffffffffffffffffff021916908373ffffffffffffffffffffffffffffffffffffffff1602179055506119a4806100606000396000f300608060405260043610610078576000357c0100000000000000000000000000000000000000000000000000000000900463ffffffff16806321e90f151461007d5780638bce6edd14610226578063afb9fbd314610482578063d63fbfba146104ad578063e8a90d631461071f578063ec55ec721461078c575b600080fd5b34801561008957600080fd5b50610224600480360381019080803590602001908201803590602001908080601f0160208091040260200160405190810160405280939291908181526020018383808284378201915050505050509192919290803590602001908201803590602001908080601f0160208091040260200160405190810160405280939291908181526020018383808284378201915050505050509192919290803590602001908201803590602001908080601f0160208091040260200160405190810160405280939291908181526020018383808284378201915050505050509192919290803590602001908201803590602001908080601f0160208091040260200160405190810160405280939291908181526020018383808284378201915050505050509192919290803590602001908201803590602001908080601f016020809104026020016040519081016040528093929190818152602001838380828437820191505050505050919291929080359060200190929190803590602001909291908035906020019092919080359060200190929190505050610a14565b005b34801561023257600080fd5b5061023b610c81565b6040518080602001806020018060200180602001806020018a815260200189815260200188815260200187815260200186810386528f818151815260200191508051906020019080838360005b838110156102a3578082015181840152602081019050610288565b50505050905090810190601f1680156102d05780820380516001836020036101000a031916815260200191505b5086810385528e818151815260200191508051906020019080838360005b838110156103095780820151818401526020810190506102ee565b50505050905090810190601f1680156103365780820380516001836020036101000a031916815260200191505b5086810384528d818151815260200191508051906020019080838360005b8381101561036f578082015181840152602081019050610354565b50505050905090810190601f16801561039c5780820380516001836020036101000a031916815260200191505b5086810383528c818151815260200191508051906020019080838360005b838110156103d55780820151818401526020810190506103ba565b50505050905090810190601f1680156104025780820380516001836020036101000a031916815260200191505b5086810382528b818151815260200191508051906020019080838360005b8381101561043b578082015181840152602081019050610420565b50505050905090810190601f1680156104685780820380516001836020036101000a031916815260200191505b509e50505050505050505050505050505060405180910390f35b34801561048e57600080fd5b5061049761120e565b6040518082815260200191505060405180910390f35b3480156104b957600080fd5b506104d860048036038101908080359060200190929190505050611214565b6040518080602001806020018060200180602001806020018a815260200189815260200188815260200187815260200186810386528f818151815260200191508051906020019080838360005b83811015610540578082015181840152602081019050610525565b50505050905090810190601f16801561056d5780820380516001836020036101000a031916815260200191505b5086810385528e818151815260200191508051906020019080838360005b838110156105a657808201518184015260208101905061058b565b50505050905090810190601f1680156105d35780820380516001836020036101000a031916815260200191505b5086810384528d818151815260200191508051906020019080838360005b8381101561060c5780820151818401526020810190506105f1565b50505050905090810190601f1680156106395780820380516001836020036101000a031916815260200191505b5086810383528c818151815260200191508051906020019080838360005b83811015610672578082015181840152602081019050610657565b50505050905090810190601f16801561069f5780820380516001836020036101000a031916815260200191505b5086810382528b818151815260200191508051906020019080838360005b838110156106d85780820151818401526020810190506106bd565b50505050905090810190601f1680156107055780820380516001836020036101000a031916815260200191505b509e50505050505050505050505050505060405180910390f35b34801561072b57600080fd5b5061074a6004803603810190808035906020019092919050505061155a565b604051808273ffffffffffffffffffffffffffffffffffffffff1673ffffffffffffffffffffffffffffffffffffffff16815260200191505060405180910390f35b34801561079857600080fd5b506107cd600480360381019080803573ffffffffffffffffffffffffffffffffffffffff16906020019092919050505061158d565b6040518080602001806020018060200180602001806020018a815260200189815260200188815260200187815260200186810386528f818151815260200191508051906020019080838360005b8381101561083557808201518184015260208101905061081a565b50505050905090810190601f1680156108625780820380516001836020036101000a031916815260200191505b5086810385528e818151815260200191508051906020019080838360005b8381101561089b578082015181840152602081019050610880565b50505050905090810190601f1680156108c85780820380516001836020036101000a031916815260200191505b5086810384528d818151815260200191508051906020019080838360005b838110156109015780820151818401526020810190506108e6565b50505050905090810190601f16801561092e5780820380516001836020036101000a031916815260200191505b5086810383528c818151815260200191508051906020019080838360005b8381101561096757808201518184015260208101905061094c565b50505050905090810190601f1680156109945780820380516001836020036101000a031916815260200191505b5086810382528b818151815260200191508051906020019080838360005b838110156109cd5780820151818401526020810190506109b2565b50505050905090810190601f1680156109fa5780820380516001836020036101000a031916815260200191505b509e50505050505050505050505050505060405180910390f35b600460008154809291906001019190505550610120604051908101604052808a8152602001898152602001888152602001878152602001868152602001858152602001848152602001838152602001828152506001600060045481526020019081526020016000206000820151816000019080519060200190610a989291906118d3565b506020820151816001019080519060200190610ab59291906118d3565b506040820151816002019080519060200190610ad29291906118d3565b506060820151816003019080519060200190610aef9291906118d3565b506080820151816004019080519060200190610b0c9291906118d3565b5060a0820151816005015560c0820151816006015560e082015181600701556101008201518160080155905050610120604051908101604052808a815260200189815260200188815260200187815260200186815260200185815260200184815260200183815260200182815250600260003373ffffffffffffffffffffffffffffffffffffffff1673ffffffffffffffffffffffffffffffffffffffff1681526020019081526020016000206000820151816000019080519060200190610bd59291906118d3565b506020820151816001019080519060200190610bf29291906118d3565b506040820151816002019080519060200190610c0f9291906118d3565b506060820151816003019080519060200190610c2c9291906118d3565b506080820151816004019080519060200190610c499291906118d3565b5060a0820151816005015560c0820151816006015560e082015181600701556101008201518160080155905050505050505050505050565b6060806060806060600080600080600260003373ffffffffffffffffffffffffffffffffffffffff1673ffffffffffffffffffffffffffffffffffffffff168152602001908152602001600020600001600260003373ffffffffffffffffffffffffffffffffffffffff1673ffffffffffffffffffffffffffffffffffffffff168152602001908152602001600020600101600260003373ffffffffffffffffffffffffffffffffffffffff1673ffffffffffffffffffffffffffffffffffffffff168152602001908152602001600020600201600260003373ffffffffffffffffffffffffffffffffffffffff1673ffffffffffffffffffffffffffffffffffffffff168152602001908152602001600020600301600260003373ffffffffffffffffffffffffffffffffffffffff1673ffffffffffffffffffffffffffffffffffffffff168152602001908152602001600020600401600260003373ffffffffffffffffffffffffffffffffffffffff1673ffffffffffffffffffffffffffffffffffffffff16815260200190815260200160002060050154600260003373ffffffffffffffffffffffffffffffffffffffff1673ffffffffffffffffffffffffffffffffffffffff16815260200190815260200160002060060154600260003373ffffffffffffffffffffffffffffffffffffffff1673ffffffffffffffffffffffffffffffffffffffff16815260200190815260200160002060070154600260003373ffffffffffffffffffffffffffffffffffffffff1673ffffffffffffffffffffffffffffffffffffffff16815260200190815260200160002060080154888054600181600116156101000203166002900480601f016020809104026020016040519081016040528092919081815260200182805460018160011615610100020316600290048015610f7a5780601f10610f4f57610100808354040283529160200191610f7a565b820191906000526020600020905b815481529060010190602001808311610f5d57829003601f168201915b50505050509850878054600181600116156101000203166002900480601f0160208091040260200160405190810160405280929190818152602001828054600181600116156101000203166002900480156110165780601f10610feb57610100808354040283529160200191611016565b820191906000526020600020905b815481529060010190602001808311610ff957829003601f168201915b50505050509750868054600181600116156101000203166002900480601f0160208091040260200160405190810160405280929190818152602001828054600181600116156101000203166002900480156110b25780601f10611087576101008083540402835291602001916110b2565b820191906000526020600020905b81548152906001019060200180831161109557829003601f168201915b50505050509650858054600181600116156101000203166002900480601f01602080910402602001604051908101604052809291908181526020018280546001816001161561010002031660029004801561114e5780601f106111235761010080835404028352916020019161114e565b820191906000526020600020905b81548152906001019060200180831161113157829003601f168201915b50505050509550848054600181600116156101000203166002900480601f0160208091040260200160405190810160405280929190818152602001828054600181600116156101000203166002900480156111ea5780601f106111bf576101008083540402835291602001916111ea565b820191906000526020600020905b8154815290600101906020018083116111cd57829003601f168201915b50505050509450985098509850985098509850985098509850909192939495969798565b60045481565b6001602052806000526040600020600091509050806000018054600181600116156101000203166002900480601f0160208091040260200160405190810160405280929190818152602001828054600181600116156101000203166002900480156112c05780601f10611295576101008083540402835291602001916112c0565b820191906000526020600020905b8154815290600101906020018083116112a357829003601f168201915b505050505090806001018054600181600116156101000203166002900480601f01602080910402602001604051908101604052809291908181526020018280546001816001161561010002031660029004801561135e5780601f106113335761010080835404028352916020019161135e565b820191906000526020600020905b81548152906001019060200180831161134157829003601f168201915b505050505090806002018054600181600116156101000203166002900480601f0160208091040260200160405190810160405280929190818152602001828054600181600116156101000203166002900480156113fc5780601f106113d1576101008083540402835291602001916113fc565b820191906000526020600020905b8154815290600101906020018083116113df57829003601f168201915b505050505090806003018054600181600116156101000203166002900480601f01602080910402602001604051908101604052809291908181526020018280546001816001161561010002031660029004801561149a5780601f1061146f5761010080835404028352916020019161149a565b820191906000526020600020905b81548152906001019060200180831161147d57829003601f168201915b505050505090806004018054600181600116156101000203166002900480601f0160208091040260200160405190810160405280929190818152602001828054600181600116156101000203166002900480156115385780601f1061150d57610100808354040283529160200191611538565b820191906000526020600020905b81548152906001019060200180831161151b57829003601f168201915b5050505050908060050154908060060154908060070154908060080154905089565b60036020528060005260406000206000915054906101000a900473ffffffffffffffffffffffffffffffffffffffff1681565b6002602052806000526040600020600091509050806000018054600181600116156101000203166002900480601f0160208091040260200160405190810160405280929190818152602001828054600181600116156101000203166002900480156116395780601f1061160e57610100808354040283529160200191611639565b820191906000526020600020905b81548152906001019060200180831161161c57829003601f168201915b505050505090806001018054600181600116156101000203166002900480601f0160208091040260200160405190810160405280929190818152602001828054600181600116156101000203166002900480156116d75780601f106116ac576101008083540402835291602001916116d7565b820191906000526020600020905b8154815290600101906020018083116116ba57829003601f168201915b505050505090806002018054600181600116156101000203166002900480601f0160208091040260200160405190810160405280929190818152602001828054600181600116156101000203166002900480156117755780601f1061174a57610100808354040283529160200191611775565b820191906000526020600020905b81548152906001019060200180831161175857829003601f168201915b505050505090806003018054600181600116156101000203166002900480601f0160208091040260200160405190810160405280929190818152602001828054600181600116156101000203166002900480156118135780601f106117e857610100808354040283529160200191611813565b820191906000526020600020905b8154815290600101906020018083116117f657829003601f168201915b505050505090806004018054600181600116156101000203166002900480601f0160208091040260200160405190810160405280929190818152602001828054600181600116156101000203166002900480156118b15780601f10611886576101008083540402835291602001916118b1565b820191906000526020600020905b81548152906001019060200180831161189457829003601f168201915b5050505050908060050154908060060154908060070154908060080154905089565b828054600181600116156101000203166002900490600052602060002090601f016020900481019282601f1061191457805160ff1916838001178555611942565b82800160010185558215611942579182015b82811115611941578251825591602001919060010190611926565b5b50905061194f9190611953565b5090565b61197591905b80821115611971576000816000905550600101611959565b5090565b905600a165627a7a723058206ec7954e507628e9ad62d40b720489e6ac33f8d4ad1c6642da3d5a7bd819fbaf0029",
  "source": "pragma solidity 0.4.25;\n\ncontract Teams {\n    \n    struct Team {\n        string TeamName;\n        string firstMemberName;\n        string secondMemberName;\n        string thirdMemberName;\n        string fourthMemberName;\n        uint firstcid;\n        uint secondcid;\n        uint thirdcid;\n        uint fourthcid;\n    }\n    \n    address private owner;\n    \n    mapping(uint => Team) public Teammapint;\n    mapping(address => Team) public Teammap ;\n    mapping(uint => address) public Teammapaddr;\n    uint public teamcount;\n    \n    constructor() public {\n        \n        owner = msg.sender;\n        \n    }\n    \n    function setTeam(string Tn,string fn,string sn, string tn,string ftn,uint fid,uint sid,uint tid,uint ftid) public {\n        \n        teamcount++;\n        Teammapint[teamcount] = Team(Tn,fn,sn,tn,ftn,fid,sid,tid,ftid);\n        Teammap[msg.sender] = Team(Tn,fn,sn,tn,ftn,fid,sid,tid,ftid);\n        \n    }\n    \n    function getTeam() public view returns (string,string,string,string,string,uint,uint,uint,uint){\n           return (Teammap[msg.sender].TeamName,Teammap[msg.sender].firstMemberName,Teammap[msg.sender].secondMemberName,Teammap[msg.sender].thirdMemberName,Teammap[msg.sender].fourthMemberName,Teammap[msg.sender].firstcid,Teammap[msg.sender].secondcid,Teammap[msg.sender].thirdcid,Teammap[msg.sender].fourthcid);\n    }\n    \n}",
  "sourcePath": "/home/pratik/Desktop/BlockChain/CrowdFund/contracts/Team.sol",
  "compiler": {
    "name": "solc",
    "version": "0.4.25+commit.59dbf8f1.Emscripten.clang"
  },
  "schemaVersion": "2.0.2",
  "updatedAt": "2019-02-02T08:14:37.090Z"
}