{
  "contractName": "Teams",
  "abi": [
    {
      "constant": true,
      "inputs": [],
      "name": "teamcount",
      "outputs": [
        {
          "name": "",
          "type": "uint256"
        }
      ],
      "payable": false,
      "stateMutability": "view",
      "type": "function"
    },
    {
      "constant": true,
      "inputs": [
        {
          "name": "",
          "type": "uint256"
        }
      ],
      "name": "Teammapint",
      "outputs": [
        {
          "name": "TeamName",
          "type": "string"
        },
        {
          "name": "firstMemberName",
          "type": "string"
        },
        {
          "name": "secondMemberName",
          "type": "string"
        },
        {
          "name": "thirdMemberName",
          "type": "string"
        },
        {
          "name": "fourthMemberName",
          "type": "string"
        },
        {
          "name": "firstcid",
          "type": "uint256"
        },
        {
          "name": "secondcid",
          "type": "uint256"
        },
        {
          "name": "thirdcid",
          "type": "uint256"
        },
        {
          "name": "fourthcid",
          "type": "uint256"
        }
      ],
      "payable": false,
      "stateMutability": "view",
      "type": "function"
    },
    {
      "constant": true,
      "inputs": [
        {
          "name": "",
          "type": "uint256"
        }
      ],
      "name": "Teammapaddr",
      "outputs": [
        {
          "name": "",
          "type": "address"
        }
      ],
      "payable": false,
      "stateMutability": "view",
      "type": "function"
    },
    {
      "constant": true,
      "inputs": [
        {
          "name": "",
          "type": "address"
        }
      ],
      "name": "Teammap",
      "outputs": [
        {
          "name": "TeamName",
          "type": "string"
        },
        {
          "name": "firstMemberName",
          "type": "string"
        },
        {
          "name": "secondMemberName",
          "type": "string"
        },
        {
          "name": "thirdMemberName",
          "type": "string"
        },
        {
          "name": "fourthMemberName",
          "type": "string"
        },
        {
          "name": "firstcid",
          "type": "uint256"
        },
        {
          "name": "secondcid",
          "type": "uint256"
        },
        {
          "name": "thirdcid",
          "type": "uint256"
        },
        {
          "name": "fourthcid",
          "type": "uint256"
        }
      ],
      "payable": false,
      "stateMutability": "view",
      "type": "function"
    },
    {
      "inputs": [],
      "payable": false,
      "stateMutability": "nonpayable",
      "type": "constructor"
    },
    {
      "constant": false,
      "inputs": [
        {
          "name": "Tn",
          "type": "string"
        },
        {
          "name": "fn",
          "type": "string"
        },
        {
          "name": "sn",
          "type": "string"
        },
        {
          "name": "tn",
          "type": "string"
        },
        {
          "name": "ftn",
          "type": "string"
        },
        {
          "name": "fid",
          "type": "uint256"
        },
        {
          "name": "sid",
          "type": "uint256"
        },
        {
          "name": "tid",
          "type": "uint256"
        },
        {
          "name": "ftid",
          "type": "uint256"
        }
      ],
      "name": "setTeam",
      "outputs": [],
      "payable": false,
      "stateMutability": "nonpayable",
      "type": "function"
    },
    {
      "constant": false,
      "inputs": [
        {
          "name": "pass",
          "type": "string"
        }
      ],
      "name": "setPassword",
      "outputs": [],
      "payable": false,
      "stateMutability": "nonpayable",
      "type": "function"
    },
    {
      "constant": true,
      "inputs": [],
      "name": "getTeam",
      "outputs": [
        {
          "name": "",
          "type": "string"
        },
        {
          "name": "",
          "type": "string"
        },
        {
          "name": "",
          "type": "string"
        },
        {
          "name": "",
          "type": "string"
        },
        {
          "name": "",
          "type": "string"
        },
        {
          "name": "",
          "type": "uint256"
        },
        {
          "name": "",
          "type": "uint256"
        },
        {
          "name": "",
          "type": "uint256"
        },
        {
          "name": "",
          "type": "uint256"
        }
      ],
      "payable": false,
      "stateMutability": "view",
      "type": "function"
    }
  ],
  "bytecode": "0x608060405234801561001057600080fd5b50336000806101000a81548173ffffffffffffffffffffffffffffffffffffffff021916908373ffffffffffffffffffffffffffffffffffffffff160217905550611ab2806100606000396000f300608060405260043610610083576000357c0100000000000000000000000000000000000000000000000000000000900463ffffffff16806321e90f1514610088578063290bb453146102315780638bce6edd1461029a578063afb9fbd3146104f6578063d63fbfba14610521578063e8a90d6314610793578063ec55ec7214610800575b600080fd5b34801561009457600080fd5b5061022f600480360381019080803590602001908201803590602001908080601f0160208091040260200160405190810160405280939291908181526020018383808284378201915050505050509192919290803590602001908201803590602001908080601f0160208091040260200160405190810160405280939291908181526020018383808284378201915050505050509192919290803590602001908201803590602001908080601f0160208091040260200160405190810160405280939291908181526020018383808284378201915050505050509192919290803590602001908201803590602001908080601f0160208091040260200160405190810160405280939291908181526020018383808284378201915050505050509192919290803590602001908201803590602001908080601f016020809104026020016040519081016040528093929190818152602001838380828437820191505050505050919291929080359060200190929190803590602001909291908035906020019092919080359060200190929190505050610a88565b005b34801561023d57600080fd5b50610298600480360381019080803590602001908201803590602001908080601f0160208091040260200160405190810160405280939291908181526020018383808284378201915050505050509192919290505050610cf5565b005b3480156102a657600080fd5b506102af610d0f565b6040518080602001806020018060200180602001806020018a815260200189815260200188815260200187815260200186810386528f818151815260200191508051906020019080838360005b838110156103175780820151818401526020810190506102fc565b50505050905090810190601f1680156103445780820380516001836020036101000a031916815260200191505b5086810385528e818151815260200191508051906020019080838360005b8381101561037d578082015181840152602081019050610362565b50505050905090810190601f1680156103aa5780820380516001836020036101000a031916815260200191505b5086810384528d818151815260200191508051906020019080838360005b838110156103e35780820151818401526020810190506103c8565b50505050905090810190601f1680156104105780820380516001836020036101000a031916815260200191505b5086810383528c818151815260200191508051906020019080838360005b8381101561044957808201518184015260208101905061042e565b50505050905090810190601f1680156104765780820380516001836020036101000a031916815260200191505b5086810382528b818151815260200191508051906020019080838360005b838110156104af578082015181840152602081019050610494565b50505050905090810190601f1680156104dc5780820380516001836020036101000a031916815260200191505b509e50505050505050505050505050505060405180910390f35b34801561050257600080fd5b5061050b61129c565b6040518082815260200191505060405180910390f35b34801561052d57600080fd5b5061054c600480360381019080803590602001909291905050506112a2565b6040518080602001806020018060200180602001806020018a815260200189815260200188815260200187815260200186810386528f818151815260200191508051906020019080838360005b838110156105b4578082015181840152602081019050610599565b50505050905090810190601f1680156105e15780820380516001836020036101000a031916815260200191505b5086810385528e818151815260200191508051906020019080838360005b8381101561061a5780820151818401526020810190506105ff565b50505050905090810190601f1680156106475780820380516001836020036101000a031916815260200191505b5086810384528d818151815260200191508051906020019080838360005b83811015610680578082015181840152602081019050610665565b50505050905090810190601f1680156106ad5780820380516001836020036101000a031916815260200191505b5086810383528c818151815260200191508051906020019080838360005b838110156106e65780820151818401526020810190506106cb565b50505050905090810190601f1680156107135780820380516001836020036101000a031916815260200191505b5086810382528b818151815260200191508051906020019080838360005b8381101561074c578082015181840152602081019050610731565b50505050905090810190601f1680156107795780820380516001836020036101000a031916815260200191505b509e50505050505050505050505050505060405180910390f35b34801561079f57600080fd5b506107be600480360381019080803590602001909291905050506115e8565b604051808273ffffffffffffffffffffffffffffffffffffffff1673ffffffffffffffffffffffffffffffffffffffff16815260200191505060405180910390f35b34801561080c57600080fd5b50610841600480360381019080803573ffffffffffffffffffffffffffffffffffffffff16906020019092919050505061161b565b6040518080602001806020018060200180602001806020018a815260200189815260200188815260200187815260200186810386528f818151815260200191508051906020019080838360005b838110156108a957808201518184015260208101905061088e565b50505050905090810190601f1680156108d65780820380516001836020036101000a031916815260200191505b5086810385528e818151815260200191508051906020019080838360005b8381101561090f5780820151818401526020810190506108f4565b50505050905090810190601f16801561093c5780820380516001836020036101000a031916815260200191505b5086810384528d818151815260200191508051906020019080838360005b8381101561097557808201518184015260208101905061095a565b50505050905090810190601f1680156109a25780820380516001836020036101000a031916815260200191505b5086810383528c818151815260200191508051906020019080838360005b838110156109db5780820151818401526020810190506109c0565b50505050905090810190601f168015610a085780820380516001836020036101000a031916815260200191505b5086810382528b818151815260200191508051906020019080838360005b83811015610a41578082015181840152602081019050610a26565b50505050905090810190601f168015610a6e5780820380516001836020036101000a031916815260200191505b509e50505050505050505050505050505060405180910390f35b600560008154809291906001019190505550610120604051908101604052808a8152602001898152602001888152602001878152602001868152602001858152602001848152602001838152602001828152506002600060055481526020019081526020016000206000820151816000019080519060200190610b0c929190611961565b506020820151816001019080519060200190610b29929190611961565b506040820151816002019080519060200190610b46929190611961565b506060820151816003019080519060200190610b63929190611961565b506080820151816004019080519060200190610b80929190611961565b5060a0820151816005015560c0820151816006015560e082015181600701556101008201518160080155905050610120604051908101604052808a815260200189815260200188815260200187815260200186815260200185815260200184815260200183815260200182815250600360003373ffffffffffffffffffffffffffffffffffffffff1673ffffffffffffffffffffffffffffffffffffffff1681526020019081526020016000206000820151816000019080519060200190610c49929190611961565b506020820151816001019080519060200190610c66929190611961565b506040820151816002019080519060200190610c83929190611961565b506060820151816003019080519060200190610ca0929190611961565b506080820151816004019080519060200190610cbd929190611961565b5060a0820151816005015560c0820151816006015560e082015181600701556101008201518160080155905050505050505050505050565b8060019080519060200190610d0b9291906119e1565b5050565b6060806060806060600080600080600360003373ffffffffffffffffffffffffffffffffffffffff1673ffffffffffffffffffffffffffffffffffffffff168152602001908152602001600020600001600360003373ffffffffffffffffffffffffffffffffffffffff1673ffffffffffffffffffffffffffffffffffffffff168152602001908152602001600020600101600360003373ffffffffffffffffffffffffffffffffffffffff1673ffffffffffffffffffffffffffffffffffffffff168152602001908152602001600020600201600360003373ffffffffffffffffffffffffffffffffffffffff1673ffffffffffffffffffffffffffffffffffffffff168152602001908152602001600020600301600360003373ffffffffffffffffffffffffffffffffffffffff1673ffffffffffffffffffffffffffffffffffffffff168152602001908152602001600020600401600360003373ffffffffffffffffffffffffffffffffffffffff1673ffffffffffffffffffffffffffffffffffffffff16815260200190815260200160002060050154600360003373ffffffffffffffffffffffffffffffffffffffff1673ffffffffffffffffffffffffffffffffffffffff16815260200190815260200160002060060154600360003373ffffffffffffffffffffffffffffffffffffffff1673ffffffffffffffffffffffffffffffffffffffff16815260200190815260200160002060070154600360003373ffffffffffffffffffffffffffffffffffffffff1673ffffffffffffffffffffffffffffffffffffffff16815260200190815260200160002060080154888054600181600116156101000203166002900480601f0160208091040260200160405190810160405280929190818152602001828054600181600116156101000203166002900480156110085780601f10610fdd57610100808354040283529160200191611008565b820191906000526020600020905b815481529060010190602001808311610feb57829003601f168201915b50505050509850878054600181600116156101000203166002900480601f0160208091040260200160405190810160405280929190818152602001828054600181600116156101000203166002900480156110a45780601f10611079576101008083540402835291602001916110a4565b820191906000526020600020905b81548152906001019060200180831161108757829003601f168201915b50505050509750868054600181600116156101000203166002900480601f0160208091040260200160405190810160405280929190818152602001828054600181600116156101000203166002900480156111405780601f1061111557610100808354040283529160200191611140565b820191906000526020600020905b81548152906001019060200180831161112357829003601f168201915b50505050509650858054600181600116156101000203166002900480601f0160208091040260200160405190810160405280929190818152602001828054600181600116156101000203166002900480156111dc5780601f106111b1576101008083540402835291602001916111dc565b820191906000526020600020905b8154815290600101906020018083116111bf57829003601f168201915b50505050509550848054600181600116156101000203166002900480601f0160208091040260200160405190810160405280929190818152602001828054600181600116156101000203166002900480156112785780601f1061124d57610100808354040283529160200191611278565b820191906000526020600020905b81548152906001019060200180831161125b57829003601f168201915b50505050509450985098509850985098509850985098509850909192939495969798565b60055481565b6002602052806000526040600020600091509050806000018054600181600116156101000203166002900480601f01602080910402602001604051908101604052809291908181526020018280546001816001161561010002031660029004801561134e5780601f106113235761010080835404028352916020019161134e565b820191906000526020600020905b81548152906001019060200180831161133157829003601f168201915b505050505090806001018054600181600116156101000203166002900480601f0160208091040260200160405190810160405280929190818152602001828054600181600116156101000203166002900480156113ec5780601f106113c1576101008083540402835291602001916113ec565b820191906000526020600020905b8154815290600101906020018083116113cf57829003601f168201915b505050505090806002018054600181600116156101000203166002900480601f01602080910402602001604051908101604052809291908181526020018280546001816001161561010002031660029004801561148a5780601f1061145f5761010080835404028352916020019161148a565b820191906000526020600020905b81548152906001019060200180831161146d57829003601f168201915b505050505090806003018054600181600116156101000203166002900480601f0160208091040260200160405190810160405280929190818152602001828054600181600116156101000203166002900480156115285780601f106114fd57610100808354040283529160200191611528565b820191906000526020600020905b81548152906001019060200180831161150b57829003601f168201915b505050505090806004018054600181600116156101000203166002900480601f0160208091040260200160405190810160405280929190818152602001828054600181600116156101000203166002900480156115c65780601f1061159b576101008083540402835291602001916115c6565b820191906000526020600020905b8154815290600101906020018083116115a957829003601f168201915b5050505050908060050154908060060154908060070154908060080154905089565b60046020528060005260406000206000915054906101000a900473ffffffffffffffffffffffffffffffffffffffff1681565b6003602052806000526040600020600091509050806000018054600181600116156101000203166002900480601f0160208091040260200160405190810160405280929190818152602001828054600181600116156101000203166002900480156116c75780601f1061169c576101008083540402835291602001916116c7565b820191906000526020600020905b8154815290600101906020018083116116aa57829003601f168201915b505050505090806001018054600181600116156101000203166002900480601f0160208091040260200160405190810160405280929190818152602001828054600181600116156101000203166002900480156117655780601f1061173a57610100808354040283529160200191611765565b820191906000526020600020905b81548152906001019060200180831161174857829003601f168201915b505050505090806002018054600181600116156101000203166002900480601f0160208091040260200160405190810160405280929190818152602001828054600181600116156101000203166002900480156118035780601f106117d857610100808354040283529160200191611803565b820191906000526020600020905b8154815290600101906020018083116117e657829003601f168201915b505050505090806003018054600181600116156101000203166002900480601f0160208091040260200160405190810160405280929190818152602001828054600181600116156101000203166002900480156118a15780601f10611876576101008083540402835291602001916118a1565b820191906000526020600020905b81548152906001019060200180831161188457829003601f168201915b505050505090806004018054600181600116156101000203166002900480601f01602080910402602001604051908101604052809291908181526020018280546001816001161561010002031660029004801561193f5780601f106119145761010080835404028352916020019161193f565b820191906000526020600020905b81548152906001019060200180831161192257829003601f168201915b5050505050908060050154908060060154908060070154908060080154905089565b828054600181600116156101000203166002900490600052602060002090601f016020900481019282601f106119a257805160ff19168380011785556119d0565b828001600101855582156119d0579182015b828111156119cf5782518255916020019190600101906119b4565b5b5090506119dd9190611a61565b5090565b828054600181600116156101000203166002900490600052602060002090601f016020900481019282601f10611a2257805160ff1916838001178555611a50565b82800160010185558215611a50579182015b82811115611a4f578251825591602001919060010190611a34565b5b509050611a5d9190611a61565b5090565b611a8391905b80821115611a7f576000816000905550600101611a67565b5090565b905600a165627a7a72305820f8e6943bc14f70f9cac954b5b02d228737e83d6c278c1e042c7138fadc48b6110029",
  "source": "pragma solidity 0.4.25;\n\ncontract Teams {\n    \n    struct Team {\n        string TeamName;\n        string firstMemberName;\n        string secondMemberName;\n        string thirdMemberName;\n        string fourthMemberName;\n        uint firstcid;\n        uint secondcid;\n        uint thirdcid;\n        uint fourthcid;\n    }\n    \n    address private owner;\n    string private password;\n    \n    mapping(uint => Team) public Teammapint;\n    mapping(address => Team) public Teammap ;\n    mapping(uint => address) public Teammapaddr;\n    uint public teamcount;\n    \n    constructor() public {\n        \n        owner = msg.sender;\n        \n    }\n    \n    function setTeam(string Tn,string fn,string sn, string tn,string ftn,uint fid,uint sid,uint tid,uint ftid) public {\n        \n        teamcount++;\n        Teammapint[teamcount] = Team(Tn,fn,sn,tn,ftn,fid,sid,tid,ftid);\n        Teammap[msg.sender] = Team(Tn,fn,sn,tn,ftn,fid,sid,tid,ftid);\n        \n    }\n    \n    function setPassword(string pass) public{\n        password=pass;\n    }\n    \n    function getTeam() public view returns (string,string,string,string,string,uint,uint,uint,uint){\n           return (Teammap[msg.sender].TeamName,Teammap[msg.sender].firstMemberName,Teammap[msg.sender].secondMemberName,Teammap[msg.sender].thirdMemberName,Teammap[msg.sender].fourthMemberName,Teammap[msg.sender].firstcid,Teammap[msg.sender].secondcid,Teammap[msg.sender].thirdcid,Teammap[msg.sender].fourthcid);\n    }\n    \n}",
  "sourcePath": "/home/pratik/Desktop/BlockChain/CrowdFund/contracts/Team.sol",
  "compiler": {
    "name": "solc",
    "version": "0.4.25+commit.59dbf8f1.Emscripten.clang"
  },
  "schemaVersion": "2.0.2",
  "updatedAt": "2019-02-02T09:37:47.242Z"
}