{
  "contractName": "Teams",
  "abi": [
    {
      "constant": true,
      "inputs": [],
      "name": "teamcount",
      "outputs": [
        {
          "name": "",
          "type": "uint256"
        }
      ],
      "payable": false,
      "stateMutability": "view",
      "type": "function"
    },
    {
      "constant": true,
      "inputs": [
        {
          "name": "",
          "type": "address"
        }
      ],
      "name": "PasswordMap",
      "outputs": [
        {
          "name": "",
          "type": "string"
        }
      ],
      "payable": false,
      "stateMutability": "view",
      "type": "function"
    },
    {
      "constant": true,
      "inputs": [
        {
          "name": "",
          "type": "uint256"
        }
      ],
      "name": "Teammapint",
      "outputs": [
        {
          "name": "TeamName",
          "type": "string"
        },
        {
          "name": "firstMemberName",
          "type": "string"
        },
        {
          "name": "secondMemberName",
          "type": "string"
        },
        {
          "name": "thirdMemberName",
          "type": "string"
        },
        {
          "name": "fourthMemberName",
          "type": "string"
        },
        {
          "name": "firstcid",
          "type": "uint256"
        },
        {
          "name": "secondcid",
          "type": "uint256"
        },
        {
          "name": "thirdcid",
          "type": "uint256"
        },
        {
          "name": "fourthcid",
          "type": "uint256"
        }
      ],
      "payable": false,
      "stateMutability": "view",
      "type": "function"
    },
    {
      "constant": true,
      "inputs": [
        {
          "name": "",
          "type": "uint256"
        }
      ],
      "name": "Teammapaddr",
      "outputs": [
        {
          "name": "",
          "type": "address"
        }
      ],
      "payable": false,
      "stateMutability": "view",
      "type": "function"
    },
    {
      "constant": true,
      "inputs": [
        {
          "name": "",
          "type": "address"
        }
      ],
      "name": "Teammap",
      "outputs": [
        {
          "name": "TeamName",
          "type": "string"
        },
        {
          "name": "firstMemberName",
          "type": "string"
        },
        {
          "name": "secondMemberName",
          "type": "string"
        },
        {
          "name": "thirdMemberName",
          "type": "string"
        },
        {
          "name": "fourthMemberName",
          "type": "string"
        },
        {
          "name": "firstcid",
          "type": "uint256"
        },
        {
          "name": "secondcid",
          "type": "uint256"
        },
        {
          "name": "thirdcid",
          "type": "uint256"
        },
        {
          "name": "fourthcid",
          "type": "uint256"
        }
      ],
      "payable": false,
      "stateMutability": "view",
      "type": "function"
    },
    {
      "inputs": [],
      "payable": false,
      "stateMutability": "nonpayable",
      "type": "constructor"
    },
    {
      "constant": false,
      "inputs": [
        {
          "name": "Tn",
          "type": "string"
        },
        {
          "name": "fn",
          "type": "string"
        },
        {
          "name": "sn",
          "type": "string"
        },
        {
          "name": "tn",
          "type": "string"
        },
        {
          "name": "ftn",
          "type": "string"
        },
        {
          "name": "fid",
          "type": "uint256"
        },
        {
          "name": "sid",
          "type": "uint256"
        },
        {
          "name": "tid",
          "type": "uint256"
        },
        {
          "name": "ftid",
          "type": "uint256"
        }
      ],
      "name": "setTeam",
      "outputs": [],
      "payable": false,
      "stateMutability": "nonpayable",
      "type": "function"
    },
    {
      "constant": false,
      "inputs": [
        {
          "name": "pass",
          "type": "string"
        }
      ],
      "name": "setPassword",
      "outputs": [],
      "payable": false,
      "stateMutability": "nonpayable",
      "type": "function"
    },
    {
      "constant": true,
      "inputs": [],
      "name": "getTeam",
      "outputs": [
        {
          "name": "",
          "type": "string"
        },
        {
          "name": "",
          "type": "string"
        },
        {
          "name": "",
          "type": "string"
        },
        {
          "name": "",
          "type": "string"
        },
        {
          "name": "",
          "type": "string"
        },
        {
          "name": "",
          "type": "uint256"
        },
        {
          "name": "",
          "type": "uint256"
        },
        {
          "name": "",
          "type": "uint256"
        },
        {
          "name": "",
          "type": "uint256"
        }
      ],
      "payable": false,
      "stateMutability": "view",
      "type": "function"
    },
    {
      "constant": true,
      "inputs": [],
      "name": "getCount",
      "outputs": [
        {
          "name": "",
          "type": "uint256"
        }
      ],
      "payable": false,
      "stateMutability": "view",
      "type": "function"
    },
    {
      "constant": true,
      "inputs": [
        {
          "name": "i",
          "type": "uint256"
        }
      ],
      "name": "getAddressbyint",
      "outputs": [
        {
          "name": "",
          "type": "address"
        }
      ],
      "payable": false,
      "stateMutability": "view",
      "type": "function"
    },
    {
      "constant": true,
      "inputs": [
        {
          "name": "i",
          "type": "uint256"
        }
      ],
      "name": "getTeambyint",
      "outputs": [
        {
          "name": "",
          "type": "string"
        }
      ],
      "payable": false,
      "stateMutability": "view",
      "type": "function"
    }
  ],
  "bytecode": "0x608060405234801561001057600080fd5b50336000806101000a81548173ffffffffffffffffffffffffffffffffffffffff021916908373ffffffffffffffffffffffffffffffffffffffff160217905550611edb806100606000396000f3006080604052600436106100af576000357c0100000000000000000000000000000000000000000000000000000000900463ffffffff16806321e90f15146100b4578063290bb4531461025d5780638bce6edd146102c6578063a87d942c14610522578063afb9fbd31461054d578063bbec1d8614610578578063cf1f044f14610634578063d63fbfba146106a1578063e8a90d6314610913578063ec55ec7214610980578063ff325ca714610c08575b600080fd5b3480156100c057600080fd5b5061025b600480360381019080803590602001908201803590602001908080601f0160208091040260200160405190810160405280939291908181526020018383808284378201915050505050509192919290803590602001908201803590602001908080601f0160208091040260200160405190810160405280939291908181526020018383808284378201915050505050509192919290803590602001908201803590602001908080601f0160208091040260200160405190810160405280939291908181526020018383808284378201915050505050509192919290803590602001908201803590602001908080601f0160208091040260200160405190810160405280939291908181526020018383808284378201915050505050509192919290803590602001908201803590602001908080601f016020809104026020016040519081016040528093929190818152602001838380828437820191505050505050919291929080359060200190929190803590602001909291908035906020019092919080359060200190929190505050610cae565b005b34801561026957600080fd5b506102c4600480360381019080803590602001908201803590602001908080601f0160208091040260200160405190810160405280939291908181526020018383808284378201915050505050509192919290505050610f6f565b005b3480156102d257600080fd5b506102db610f89565b6040518080602001806020018060200180602001806020018a815260200189815260200188815260200187815260200186810386528f818151815260200191508051906020019080838360005b83811015610343578082015181840152602081019050610328565b50505050905090810190601f1680156103705780820380516001836020036101000a031916815260200191505b5086810385528e818151815260200191508051906020019080838360005b838110156103a957808201518184015260208101905061038e565b50505050905090810190601f1680156103d65780820380516001836020036101000a031916815260200191505b5086810384528d818151815260200191508051906020019080838360005b8381101561040f5780820151818401526020810190506103f4565b50505050905090810190601f16801561043c5780820380516001836020036101000a031916815260200191505b5086810383528c818151815260200191508051906020019080838360005b8381101561047557808201518184015260208101905061045a565b50505050905090810190601f1680156104a25780820380516001836020036101000a031916815260200191505b5086810382528b818151815260200191508051906020019080838360005b838110156104db5780820151818401526020810190506104c0565b50505050905090810190601f1680156105085780820380516001836020036101000a031916815260200191505b509e50505050505050505050505050505060405180910390f35b34801561052e57600080fd5b50610537611516565b6040518082815260200191505060405180910390f35b34801561055957600080fd5b50610562611520565b6040518082815260200191505060405180910390f35b34801561058457600080fd5b506105b9600480360381019080803573ffffffffffffffffffffffffffffffffffffffff169060200190929190505050611526565b6040518080602001828103825283818151815260200191508051906020019080838360005b838110156105f95780820151818401526020810190506105de565b50505050905090810190601f1680156106265780820380516001836020036101000a031916815260200191505b509250505060405180910390f35b34801561064057600080fd5b5061065f600480360381019080803590602001909291905050506115d6565b604051808273ffffffffffffffffffffffffffffffffffffffff1673ffffffffffffffffffffffffffffffffffffffff16815260200191505060405180910390f35b3480156106ad57600080fd5b506106cc60048036038101908080359060200190929190505050611613565b6040518080602001806020018060200180602001806020018a815260200189815260200188815260200187815260200186810386528f818151815260200191508051906020019080838360005b83811015610734578082015181840152602081019050610719565b50505050905090810190601f1680156107615780820380516001836020036101000a031916815260200191505b5086810385528e818151815260200191508051906020019080838360005b8381101561079a57808201518184015260208101905061077f565b50505050905090810190601f1680156107c75780820380516001836020036101000a031916815260200191505b5086810384528d818151815260200191508051906020019080838360005b838110156108005780820151818401526020810190506107e5565b50505050905090810190601f16801561082d5780820380516001836020036101000a031916815260200191505b5086810383528c818151815260200191508051906020019080838360005b8381101561086657808201518184015260208101905061084b565b50505050905090810190601f1680156108935780820380516001836020036101000a031916815260200191505b5086810382528b818151815260200191508051906020019080838360005b838110156108cc5780820151818401526020810190506108b1565b50505050905090810190601f1680156108f95780820380516001836020036101000a031916815260200191505b509e50505050505050505050505050505060405180910390f35b34801561091f57600080fd5b5061093e60048036038101908080359060200190929190505050611959565b604051808273ffffffffffffffffffffffffffffffffffffffff1673ffffffffffffffffffffffffffffffffffffffff16815260200191505060405180910390f35b34801561098c57600080fd5b506109c1600480360381019080803573ffffffffffffffffffffffffffffffffffffffff16906020019092919050505061198c565b6040518080602001806020018060200180602001806020018a815260200189815260200188815260200187815260200186810386528f818151815260200191508051906020019080838360005b83811015610a29578082015181840152602081019050610a0e565b50505050905090810190601f168015610a565780820380516001836020036101000a031916815260200191505b5086810385528e818151815260200191508051906020019080838360005b83811015610a8f578082015181840152602081019050610a74565b50505050905090810190601f168015610abc5780820380516001836020036101000a031916815260200191505b5086810384528d818151815260200191508051906020019080838360005b83811015610af5578082015181840152602081019050610ada565b50505050905090810190601f168015610b225780820380516001836020036101000a031916815260200191505b5086810383528c818151815260200191508051906020019080838360005b83811015610b5b578082015181840152602081019050610b40565b50505050905090810190601f168015610b885780820380516001836020036101000a031916815260200191505b5086810382528b818151815260200191508051906020019080838360005b83811015610bc1578082015181840152602081019050610ba6565b50505050905090810190601f168015610bee5780820380516001836020036101000a031916815260200191505b509e50505050505050505050505050505060405180910390f35b348015610c1457600080fd5b50610c3360048036038101908080359060200190929190505050611cd2565b6040518080602001828103825283818151815260200191508051906020019080838360005b83811015610c73578082015181840152602081019050610c58565b50505050905090810190601f168015610ca05780820380516001836020036101000a031916815260200191505b509250505060405180910390f35b600560008154809291906001019190505550610120604051908101604052808a8152602001898152602001888152602001878152602001868152602001858152602001848152602001838152602001828152506002600060055481526020019081526020016000206000820151816000019080519060200190610d32929190611d8a565b506020820151816001019080519060200190610d4f929190611d8a565b506040820151816002019080519060200190610d6c929190611d8a565b506060820151816003019080519060200190610d89929190611d8a565b506080820151816004019080519060200190610da6929190611d8a565b5060a0820151816005015560c0820151816006015560e0820151816007015561010082015181600801559050503360046000600554815260200190815260200160002060006101000a81548173ffffffffffffffffffffffffffffffffffffffff021916908373ffffffffffffffffffffffffffffffffffffffff160217905550610120604051908101604052808a815260200189815260200188815260200187815260200186815260200185815260200184815260200183815260200182815250600360003373ffffffffffffffffffffffffffffffffffffffff1673ffffffffffffffffffffffffffffffffffffffff1681526020019081526020016000206000820151816000019080519060200190610ec3929190611d8a565b506020820151816001019080519060200190610ee0929190611d8a565b506040820151816002019080519060200190610efd929190611d8a565b506060820151816003019080519060200190610f1a929190611d8a565b506080820151816004019080519060200190610f37929190611d8a565b5060a0820151816005015560c0820151816006015560e082015181600701556101008201518160080155905050505050505050505050565b8060019080519060200190610f85929190611e0a565b5050565b6060806060806060600080600080600360003373ffffffffffffffffffffffffffffffffffffffff1673ffffffffffffffffffffffffffffffffffffffff168152602001908152602001600020600001600360003373ffffffffffffffffffffffffffffffffffffffff1673ffffffffffffffffffffffffffffffffffffffff168152602001908152602001600020600101600360003373ffffffffffffffffffffffffffffffffffffffff1673ffffffffffffffffffffffffffffffffffffffff168152602001908152602001600020600201600360003373ffffffffffffffffffffffffffffffffffffffff1673ffffffffffffffffffffffffffffffffffffffff168152602001908152602001600020600301600360003373ffffffffffffffffffffffffffffffffffffffff1673ffffffffffffffffffffffffffffffffffffffff168152602001908152602001600020600401600360003373ffffffffffffffffffffffffffffffffffffffff1673ffffffffffffffffffffffffffffffffffffffff16815260200190815260200160002060050154600360003373ffffffffffffffffffffffffffffffffffffffff1673ffffffffffffffffffffffffffffffffffffffff16815260200190815260200160002060060154600360003373ffffffffffffffffffffffffffffffffffffffff1673ffffffffffffffffffffffffffffffffffffffff16815260200190815260200160002060070154600360003373ffffffffffffffffffffffffffffffffffffffff1673ffffffffffffffffffffffffffffffffffffffff16815260200190815260200160002060080154888054600181600116156101000203166002900480601f0160208091040260200160405190810160405280929190818152602001828054600181600116156101000203166002900480156112825780601f1061125757610100808354040283529160200191611282565b820191906000526020600020905b81548152906001019060200180831161126557829003601f168201915b50505050509850878054600181600116156101000203166002900480601f01602080910402602001604051908101604052809291908181526020018280546001816001161561010002031660029004801561131e5780601f106112f35761010080835404028352916020019161131e565b820191906000526020600020905b81548152906001019060200180831161130157829003601f168201915b50505050509750868054600181600116156101000203166002900480601f0160208091040260200160405190810160405280929190818152602001828054600181600116156101000203166002900480156113ba5780601f1061138f576101008083540402835291602001916113ba565b820191906000526020600020905b81548152906001019060200180831161139d57829003601f168201915b50505050509650858054600181600116156101000203166002900480601f0160208091040260200160405190810160405280929190818152602001828054600181600116156101000203166002900480156114565780601f1061142b57610100808354040283529160200191611456565b820191906000526020600020905b81548152906001019060200180831161143957829003601f168201915b50505050509550848054600181600116156101000203166002900480601f0160208091040260200160405190810160405280929190818152602001828054600181600116156101000203166002900480156114f25780601f106114c7576101008083540402835291602001916114f2565b820191906000526020600020905b8154815290600101906020018083116114d557829003601f168201915b50505050509450985098509850985098509850985098509850909192939495969798565b6000600554905090565b60055481565b60066020528060005260406000206000915090508054600181600116156101000203166002900480601f0160208091040260200160405190810160405280929190818152602001828054600181600116156101000203166002900480156115ce5780601f106115a3576101008083540402835291602001916115ce565b820191906000526020600020905b8154815290600101906020018083116115b157829003601f168201915b505050505081565b60006004600083815260200190815260200160002060009054906101000a900473ffffffffffffffffffffffffffffffffffffffff169050919050565b6002602052806000526040600020600091509050806000018054600181600116156101000203166002900480601f0160208091040260200160405190810160405280929190818152602001828054600181600116156101000203166002900480156116bf5780601f10611694576101008083540402835291602001916116bf565b820191906000526020600020905b8154815290600101906020018083116116a257829003601f168201915b505050505090806001018054600181600116156101000203166002900480601f01602080910402602001604051908101604052809291908181526020018280546001816001161561010002031660029004801561175d5780601f106117325761010080835404028352916020019161175d565b820191906000526020600020905b81548152906001019060200180831161174057829003601f168201915b505050505090806002018054600181600116156101000203166002900480601f0160208091040260200160405190810160405280929190818152602001828054600181600116156101000203166002900480156117fb5780601f106117d0576101008083540402835291602001916117fb565b820191906000526020600020905b8154815290600101906020018083116117de57829003601f168201915b505050505090806003018054600181600116156101000203166002900480601f0160208091040260200160405190810160405280929190818152602001828054600181600116156101000203166002900480156118995780601f1061186e57610100808354040283529160200191611899565b820191906000526020600020905b81548152906001019060200180831161187c57829003601f168201915b505050505090806004018054600181600116156101000203166002900480601f0160208091040260200160405190810160405280929190818152602001828054600181600116156101000203166002900480156119375780601f1061190c57610100808354040283529160200191611937565b820191906000526020600020905b81548152906001019060200180831161191a57829003601f168201915b5050505050908060050154908060060154908060070154908060080154905089565b60046020528060005260406000206000915054906101000a900473ffffffffffffffffffffffffffffffffffffffff1681565b6003602052806000526040600020600091509050806000018054600181600116156101000203166002900480601f016020809104026020016040519081016040528092919081815260200182805460018160011615610100020316600290048015611a385780601f10611a0d57610100808354040283529160200191611a38565b820191906000526020600020905b815481529060010190602001808311611a1b57829003601f168201915b505050505090806001018054600181600116156101000203166002900480601f016020809104026020016040519081016040528092919081815260200182805460018160011615610100020316600290048015611ad65780601f10611aab57610100808354040283529160200191611ad6565b820191906000526020600020905b815481529060010190602001808311611ab957829003601f168201915b505050505090806002018054600181600116156101000203166002900480601f016020809104026020016040519081016040528092919081815260200182805460018160011615610100020316600290048015611b745780601f10611b4957610100808354040283529160200191611b74565b820191906000526020600020905b815481529060010190602001808311611b5757829003601f168201915b505050505090806003018054600181600116156101000203166002900480601f016020809104026020016040519081016040528092919081815260200182805460018160011615610100020316600290048015611c125780601f10611be757610100808354040283529160200191611c12565b820191906000526020600020905b815481529060010190602001808311611bf557829003601f168201915b505050505090806004018054600181600116156101000203166002900480601f016020809104026020016040519081016040528092919081815260200182805460018160011615610100020316600290048015611cb05780601f10611c8557610100808354040283529160200191611cb0565b820191906000526020600020905b815481529060010190602001808311611c9357829003601f168201915b5050505050908060050154908060060154908060070154908060080154905089565b6060600260008381526020019081526020016000206000018054600181600116156101000203166002900480601f016020809104026020016040519081016040528092919081815260200182805460018160011615610100020316600290048015611d7e5780601f10611d5357610100808354040283529160200191611d7e565b820191906000526020600020905b815481529060010190602001808311611d6157829003601f168201915b50505050509050919050565b828054600181600116156101000203166002900490600052602060002090601f016020900481019282601f10611dcb57805160ff1916838001178555611df9565b82800160010185558215611df9579182015b82811115611df8578251825591602001919060010190611ddd565b5b509050611e069190611e8a565b5090565b828054600181600116156101000203166002900490600052602060002090601f016020900481019282601f10611e4b57805160ff1916838001178555611e79565b82800160010185558215611e79579182015b82811115611e78578251825591602001919060010190611e5d565b5b509050611e869190611e8a565b5090565b611eac91905b80821115611ea8576000816000905550600101611e90565b5090565b905600a165627a7a723058204ed92fa489de4e46d9eb6aa1266af35241b66c5969ae37e7e09ad401f29b256b0029",
  "source": "pragma solidity 0.4.25;\n\ncontract Teams {\n    \n    struct Team {\n        string TeamName;\n        string firstMemberName;\n        string secondMemberName;\n        string thirdMemberName;\n        string fourthMemberName;\n        uint firstcid;\n        uint secondcid;\n        uint thirdcid;\n        uint fourthcid;\n    }\n    \n    address private owner;\n    string private password;\n    \n    mapping(uint => Team) public Teammapint;\n    mapping(address => Team) public Teammap ;\n    mapping(uint => address) public Teammapaddr;\n    uint public teamcount;\n    mapping(address => string) public PasswordMap;\n    \n    constructor() public {\n        \n        owner = msg.sender;\n        \n    }\n    \n    function setTeam(string Tn,string fn,string sn, string tn,string ftn,uint fid,uint sid,uint tid,uint ftid) public {\n        \n        teamcount++;\n        Teammapint[teamcount] = Team(Tn,fn,sn,tn,ftn,fid,sid,tid,ftid);\n        Teammapaddr[teamcount] = msg.sender;\n        Teammap[msg.sender] = Team(Tn,fn,sn,tn,ftn,fid,sid,tid,ftid);\n        \n    }\n    \n    function setPassword(string pass) public{\n        password=pass;\n    }\n    \n    function getTeam() public view returns (string,string,string,string,string,uint,uint,uint,uint){\n           return (Teammap[msg.sender].TeamName,Teammap[msg.sender].firstMemberName,Teammap[msg.sender].secondMemberName,Teammap[msg.sender].thirdMemberName,Teammap[msg.sender].fourthMemberName,Teammap[msg.sender].firstcid,Teammap[msg.sender].secondcid,Teammap[msg.sender].thirdcid,Teammap[msg.sender].fourthcid);\n    }\n\n    function getCount() public view returns (uint){\n        return teamcount;\n    }\n\n    function getAddressbyint(uint i) public view returns (address){\n        return Teammapaddr[i];\n    }\n\n    function getTeambyint(uint i) public view returns (string){\n        return Teammapint[i].TeamName;\n    }\n    \n}",
  "sourcePath": "/home/pratik/Desktop/BlockChain/CrowdFund/contracts/Team.sol",
  "compiler": {
    "name": "solc",
    "version": "0.4.25+commit.59dbf8f1.Emscripten.clang"
  },
  "schemaVersion": "2.0.2",
  "updatedAt": "2019-02-02T18:22:15.836Z"
}