{
  "contractName": "Teams",
  "abi": [
    {
      "constant": true,
      "inputs": [],
      "name": "teamcount",
      "outputs": [
        {
          "name": "",
          "type": "uint256"
        }
      ],
      "payable": false,
      "stateMutability": "view",
      "type": "function"
    },
    {
      "constant": true,
      "inputs": [
        {
          "name": "",
          "type": "address"
        }
      ],
      "name": "PasswordMap",
      "outputs": [
        {
          "name": "",
          "type": "string"
        }
      ],
      "payable": false,
      "stateMutability": "view",
      "type": "function"
    },
    {
      "constant": true,
      "inputs": [
        {
          "name": "",
          "type": "uint256"
        }
      ],
      "name": "Teammapint",
      "outputs": [
        {
          "name": "TeamName",
          "type": "string"
        },
        {
          "name": "firstMemberName",
          "type": "string"
        },
        {
          "name": "secondMemberName",
          "type": "string"
        },
        {
          "name": "thirdMemberName",
          "type": "string"
        },
        {
          "name": "fourthMemberName",
          "type": "string"
        },
        {
          "name": "firstcid",
          "type": "uint256"
        },
        {
          "name": "secondcid",
          "type": "uint256"
        },
        {
          "name": "thirdcid",
          "type": "uint256"
        },
        {
          "name": "fourthcid",
          "type": "uint256"
        }
      ],
      "payable": false,
      "stateMutability": "view",
      "type": "function"
    },
    {
      "constant": true,
      "inputs": [
        {
          "name": "",
          "type": "uint256"
        }
      ],
      "name": "Teammapaddr",
      "outputs": [
        {
          "name": "",
          "type": "address"
        }
      ],
      "payable": false,
      "stateMutability": "view",
      "type": "function"
    },
    {
      "constant": true,
      "inputs": [
        {
          "name": "",
          "type": "address"
        }
      ],
      "name": "Teammap",
      "outputs": [
        {
          "name": "TeamName",
          "type": "string"
        },
        {
          "name": "firstMemberName",
          "type": "string"
        },
        {
          "name": "secondMemberName",
          "type": "string"
        },
        {
          "name": "thirdMemberName",
          "type": "string"
        },
        {
          "name": "fourthMemberName",
          "type": "string"
        },
        {
          "name": "firstcid",
          "type": "uint256"
        },
        {
          "name": "secondcid",
          "type": "uint256"
        },
        {
          "name": "thirdcid",
          "type": "uint256"
        },
        {
          "name": "fourthcid",
          "type": "uint256"
        }
      ],
      "payable": false,
      "stateMutability": "view",
      "type": "function"
    },
    {
      "inputs": [],
      "payable": false,
      "stateMutability": "nonpayable",
      "type": "constructor"
    },
    {
      "constant": false,
      "inputs": [
        {
          "name": "Tn",
          "type": "string"
        },
        {
          "name": "fn",
          "type": "string"
        },
        {
          "name": "sn",
          "type": "string"
        },
        {
          "name": "tn",
          "type": "string"
        },
        {
          "name": "ftn",
          "type": "string"
        },
        {
          "name": "fid",
          "type": "uint256"
        },
        {
          "name": "sid",
          "type": "uint256"
        },
        {
          "name": "tid",
          "type": "uint256"
        },
        {
          "name": "ftid",
          "type": "uint256"
        }
      ],
      "name": "setTeam",
      "outputs": [],
      "payable": false,
      "stateMutability": "nonpayable",
      "type": "function"
    },
    {
      "constant": false,
      "inputs": [
        {
          "name": "pass",
          "type": "string"
        }
      ],
      "name": "setPassword",
      "outputs": [],
      "payable": false,
      "stateMutability": "nonpayable",
      "type": "function"
    },
    {
      "constant": true,
      "inputs": [],
      "name": "getTeam",
      "outputs": [
        {
          "name": "",
          "type": "string"
        },
        {
          "name": "",
          "type": "string"
        },
        {
          "name": "",
          "type": "string"
        },
        {
          "name": "",
          "type": "string"
        },
        {
          "name": "",
          "type": "string"
        },
        {
          "name": "",
          "type": "uint256"
        },
        {
          "name": "",
          "type": "uint256"
        },
        {
          "name": "",
          "type": "uint256"
        },
        {
          "name": "",
          "type": "uint256"
        }
      ],
      "payable": false,
      "stateMutability": "view",
      "type": "function"
    },
    {
      "constant": true,
      "inputs": [],
      "name": "getCount",
      "outputs": [
        {
          "name": "",
          "type": "uint256"
        }
      ],
      "payable": false,
      "stateMutability": "view",
      "type": "function"
    },
    {
      "constant": true,
      "inputs": [
        {
          "name": "i",
          "type": "uint256"
        }
      ],
      "name": "getTeambyint",
      "outputs": [
        {
          "name": "",
          "type": "string"
        }
      ],
      "payable": false,
      "stateMutability": "view",
      "type": "function"
    }
  ],
  "bytecode": "0x608060405234801561001057600080fd5b50336000806101000a81548173ffffffffffffffffffffffffffffffffffffffff021916908373ffffffffffffffffffffffffffffffffffffffff160217905550611e26806100606000396000f3006080604052600436106100a4576000357c0100000000000000000000000000000000000000000000000000000000900463ffffffff16806321e90f15146100a9578063290bb453146102525780638bce6edd146102bb578063a87d942c14610517578063afb9fbd314610542578063bbec1d861461056d578063d63fbfba14610629578063e8a90d631461089b578063ec55ec7214610908578063ff325ca714610b90575b600080fd5b3480156100b557600080fd5b50610250600480360381019080803590602001908201803590602001908080601f0160208091040260200160405190810160405280939291908181526020018383808284378201915050505050509192919290803590602001908201803590602001908080601f0160208091040260200160405190810160405280939291908181526020018383808284378201915050505050509192919290803590602001908201803590602001908080601f0160208091040260200160405190810160405280939291908181526020018383808284378201915050505050509192919290803590602001908201803590602001908080601f0160208091040260200160405190810160405280939291908181526020018383808284378201915050505050509192919290803590602001908201803590602001908080601f016020809104026020016040519081016040528093929190818152602001838380828437820191505050505050919291929080359060200190929190803590602001909291908035906020019092919080359060200190929190505050610c36565b005b34801561025e57600080fd5b506102b9600480360381019080803590602001908201803590602001908080601f0160208091040260200160405190810160405280939291908181526020018383808284378201915050505050509192919290505050610ef7565b005b3480156102c757600080fd5b506102d0610f11565b6040518080602001806020018060200180602001806020018a815260200189815260200188815260200187815260200186810386528f818151815260200191508051906020019080838360005b8381101561033857808201518184015260208101905061031d565b50505050905090810190601f1680156103655780820380516001836020036101000a031916815260200191505b5086810385528e818151815260200191508051906020019080838360005b8381101561039e578082015181840152602081019050610383565b50505050905090810190601f1680156103cb5780820380516001836020036101000a031916815260200191505b5086810384528d818151815260200191508051906020019080838360005b838110156104045780820151818401526020810190506103e9565b50505050905090810190601f1680156104315780820380516001836020036101000a031916815260200191505b5086810383528c818151815260200191508051906020019080838360005b8381101561046a57808201518184015260208101905061044f565b50505050905090810190601f1680156104975780820380516001836020036101000a031916815260200191505b5086810382528b818151815260200191508051906020019080838360005b838110156104d05780820151818401526020810190506104b5565b50505050905090810190601f1680156104fd5780820380516001836020036101000a031916815260200191505b509e50505050505050505050505050505060405180910390f35b34801561052357600080fd5b5061052c61149e565b6040518082815260200191505060405180910390f35b34801561054e57600080fd5b506105576114a8565b6040518082815260200191505060405180910390f35b34801561057957600080fd5b506105ae600480360381019080803573ffffffffffffffffffffffffffffffffffffffff1690602001909291905050506114ae565b6040518080602001828103825283818151815260200191508051906020019080838360005b838110156105ee5780820151818401526020810190506105d3565b50505050905090810190601f16801561061b5780820380516001836020036101000a031916815260200191505b509250505060405180910390f35b34801561063557600080fd5b506106546004803603810190808035906020019092919050505061155e565b6040518080602001806020018060200180602001806020018a815260200189815260200188815260200187815260200186810386528f818151815260200191508051906020019080838360005b838110156106bc5780820151818401526020810190506106a1565b50505050905090810190601f1680156106e95780820380516001836020036101000a031916815260200191505b5086810385528e818151815260200191508051906020019080838360005b83811015610722578082015181840152602081019050610707565b50505050905090810190601f16801561074f5780820380516001836020036101000a031916815260200191505b5086810384528d818151815260200191508051906020019080838360005b8381101561078857808201518184015260208101905061076d565b50505050905090810190601f1680156107b55780820380516001836020036101000a031916815260200191505b5086810383528c818151815260200191508051906020019080838360005b838110156107ee5780820151818401526020810190506107d3565b50505050905090810190601f16801561081b5780820380516001836020036101000a031916815260200191505b5086810382528b818151815260200191508051906020019080838360005b83811015610854578082015181840152602081019050610839565b50505050905090810190601f1680156108815780820380516001836020036101000a031916815260200191505b509e50505050505050505050505050505060405180910390f35b3480156108a757600080fd5b506108c6600480360381019080803590602001909291905050506118a4565b604051808273ffffffffffffffffffffffffffffffffffffffff1673ffffffffffffffffffffffffffffffffffffffff16815260200191505060405180910390f35b34801561091457600080fd5b50610949600480360381019080803573ffffffffffffffffffffffffffffffffffffffff1690602001909291905050506118d7565b6040518080602001806020018060200180602001806020018a815260200189815260200188815260200187815260200186810386528f818151815260200191508051906020019080838360005b838110156109b1578082015181840152602081019050610996565b50505050905090810190601f1680156109de5780820380516001836020036101000a031916815260200191505b5086810385528e818151815260200191508051906020019080838360005b83811015610a175780820151818401526020810190506109fc565b50505050905090810190601f168015610a445780820380516001836020036101000a031916815260200191505b5086810384528d818151815260200191508051906020019080838360005b83811015610a7d578082015181840152602081019050610a62565b50505050905090810190601f168015610aaa5780820380516001836020036101000a031916815260200191505b5086810383528c818151815260200191508051906020019080838360005b83811015610ae3578082015181840152602081019050610ac8565b50505050905090810190601f168015610b105780820380516001836020036101000a031916815260200191505b5086810382528b818151815260200191508051906020019080838360005b83811015610b49578082015181840152602081019050610b2e565b50505050905090810190601f168015610b765780820380516001836020036101000a031916815260200191505b509e50505050505050505050505050505060405180910390f35b348015610b9c57600080fd5b50610bbb60048036038101908080359060200190929190505050611c1d565b6040518080602001828103825283818151815260200191508051906020019080838360005b83811015610bfb578082015181840152602081019050610be0565b50505050905090810190601f168015610c285780820380516001836020036101000a031916815260200191505b509250505060405180910390f35b600560008154809291906001019190505550610120604051908101604052808a8152602001898152602001888152602001878152602001868152602001858152602001848152602001838152602001828152506002600060055481526020019081526020016000206000820151816000019080519060200190610cba929190611cd5565b506020820151816001019080519060200190610cd7929190611cd5565b506040820151816002019080519060200190610cf4929190611cd5565b506060820151816003019080519060200190610d11929190611cd5565b506080820151816004019080519060200190610d2e929190611cd5565b5060a0820151816005015560c0820151816006015560e0820151816007015561010082015181600801559050503360046000600554815260200190815260200160002060006101000a81548173ffffffffffffffffffffffffffffffffffffffff021916908373ffffffffffffffffffffffffffffffffffffffff160217905550610120604051908101604052808a815260200189815260200188815260200187815260200186815260200185815260200184815260200183815260200182815250600360003373ffffffffffffffffffffffffffffffffffffffff1673ffffffffffffffffffffffffffffffffffffffff1681526020019081526020016000206000820151816000019080519060200190610e4b929190611cd5565b506020820151816001019080519060200190610e68929190611cd5565b506040820151816002019080519060200190610e85929190611cd5565b506060820151816003019080519060200190610ea2929190611cd5565b506080820151816004019080519060200190610ebf929190611cd5565b5060a0820151816005015560c0820151816006015560e082015181600701556101008201518160080155905050505050505050505050565b8060019080519060200190610f0d929190611d55565b5050565b6060806060806060600080600080600360003373ffffffffffffffffffffffffffffffffffffffff1673ffffffffffffffffffffffffffffffffffffffff168152602001908152602001600020600001600360003373ffffffffffffffffffffffffffffffffffffffff1673ffffffffffffffffffffffffffffffffffffffff168152602001908152602001600020600101600360003373ffffffffffffffffffffffffffffffffffffffff1673ffffffffffffffffffffffffffffffffffffffff168152602001908152602001600020600201600360003373ffffffffffffffffffffffffffffffffffffffff1673ffffffffffffffffffffffffffffffffffffffff168152602001908152602001600020600301600360003373ffffffffffffffffffffffffffffffffffffffff1673ffffffffffffffffffffffffffffffffffffffff168152602001908152602001600020600401600360003373ffffffffffffffffffffffffffffffffffffffff1673ffffffffffffffffffffffffffffffffffffffff16815260200190815260200160002060050154600360003373ffffffffffffffffffffffffffffffffffffffff1673ffffffffffffffffffffffffffffffffffffffff16815260200190815260200160002060060154600360003373ffffffffffffffffffffffffffffffffffffffff1673ffffffffffffffffffffffffffffffffffffffff16815260200190815260200160002060070154600360003373ffffffffffffffffffffffffffffffffffffffff1673ffffffffffffffffffffffffffffffffffffffff16815260200190815260200160002060080154888054600181600116156101000203166002900480601f01602080910402602001604051908101604052809291908181526020018280546001816001161561010002031660029004801561120a5780601f106111df5761010080835404028352916020019161120a565b820191906000526020600020905b8154815290600101906020018083116111ed57829003601f168201915b50505050509850878054600181600116156101000203166002900480601f0160208091040260200160405190810160405280929190818152602001828054600181600116156101000203166002900480156112a65780601f1061127b576101008083540402835291602001916112a6565b820191906000526020600020905b81548152906001019060200180831161128957829003601f168201915b50505050509750868054600181600116156101000203166002900480601f0160208091040260200160405190810160405280929190818152602001828054600181600116156101000203166002900480156113425780601f1061131757610100808354040283529160200191611342565b820191906000526020600020905b81548152906001019060200180831161132557829003601f168201915b50505050509650858054600181600116156101000203166002900480601f0160208091040260200160405190810160405280929190818152602001828054600181600116156101000203166002900480156113de5780601f106113b3576101008083540402835291602001916113de565b820191906000526020600020905b8154815290600101906020018083116113c157829003601f168201915b50505050509550848054600181600116156101000203166002900480601f01602080910402602001604051908101604052809291908181526020018280546001816001161561010002031660029004801561147a5780601f1061144f5761010080835404028352916020019161147a565b820191906000526020600020905b81548152906001019060200180831161145d57829003601f168201915b50505050509450985098509850985098509850985098509850909192939495969798565b6000600554905090565b60055481565b60066020528060005260406000206000915090508054600181600116156101000203166002900480601f0160208091040260200160405190810160405280929190818152602001828054600181600116156101000203166002900480156115565780601f1061152b57610100808354040283529160200191611556565b820191906000526020600020905b81548152906001019060200180831161153957829003601f168201915b505050505081565b6002602052806000526040600020600091509050806000018054600181600116156101000203166002900480601f01602080910402602001604051908101604052809291908181526020018280546001816001161561010002031660029004801561160a5780601f106115df5761010080835404028352916020019161160a565b820191906000526020600020905b8154815290600101906020018083116115ed57829003601f168201915b505050505090806001018054600181600116156101000203166002900480601f0160208091040260200160405190810160405280929190818152602001828054600181600116156101000203166002900480156116a85780601f1061167d576101008083540402835291602001916116a8565b820191906000526020600020905b81548152906001019060200180831161168b57829003601f168201915b505050505090806002018054600181600116156101000203166002900480601f0160208091040260200160405190810160405280929190818152602001828054600181600116156101000203166002900480156117465780601f1061171b57610100808354040283529160200191611746565b820191906000526020600020905b81548152906001019060200180831161172957829003601f168201915b505050505090806003018054600181600116156101000203166002900480601f0160208091040260200160405190810160405280929190818152602001828054600181600116156101000203166002900480156117e45780601f106117b9576101008083540402835291602001916117e4565b820191906000526020600020905b8154815290600101906020018083116117c757829003601f168201915b505050505090806004018054600181600116156101000203166002900480601f0160208091040260200160405190810160405280929190818152602001828054600181600116156101000203166002900480156118825780601f1061185757610100808354040283529160200191611882565b820191906000526020600020905b81548152906001019060200180831161186557829003601f168201915b5050505050908060050154908060060154908060070154908060080154905089565b60046020528060005260406000206000915054906101000a900473ffffffffffffffffffffffffffffffffffffffff1681565b6003602052806000526040600020600091509050806000018054600181600116156101000203166002900480601f0160208091040260200160405190810160405280929190818152602001828054600181600116156101000203166002900480156119835780601f1061195857610100808354040283529160200191611983565b820191906000526020600020905b81548152906001019060200180831161196657829003601f168201915b505050505090806001018054600181600116156101000203166002900480601f016020809104026020016040519081016040528092919081815260200182805460018160011615610100020316600290048015611a215780601f106119f657610100808354040283529160200191611a21565b820191906000526020600020905b815481529060010190602001808311611a0457829003601f168201915b505050505090806002018054600181600116156101000203166002900480601f016020809104026020016040519081016040528092919081815260200182805460018160011615610100020316600290048015611abf5780601f10611a9457610100808354040283529160200191611abf565b820191906000526020600020905b815481529060010190602001808311611aa257829003601f168201915b505050505090806003018054600181600116156101000203166002900480601f016020809104026020016040519081016040528092919081815260200182805460018160011615610100020316600290048015611b5d5780601f10611b3257610100808354040283529160200191611b5d565b820191906000526020600020905b815481529060010190602001808311611b4057829003601f168201915b505050505090806004018054600181600116156101000203166002900480601f016020809104026020016040519081016040528092919081815260200182805460018160011615610100020316600290048015611bfb5780601f10611bd057610100808354040283529160200191611bfb565b820191906000526020600020905b815481529060010190602001808311611bde57829003601f168201915b5050505050908060050154908060060154908060070154908060080154905089565b6060600260008381526020019081526020016000206000018054600181600116156101000203166002900480601f016020809104026020016040519081016040528092919081815260200182805460018160011615610100020316600290048015611cc95780601f10611c9e57610100808354040283529160200191611cc9565b820191906000526020600020905b815481529060010190602001808311611cac57829003601f168201915b50505050509050919050565b828054600181600116156101000203166002900490600052602060002090601f016020900481019282601f10611d1657805160ff1916838001178555611d44565b82800160010185558215611d44579182015b82811115611d43578251825591602001919060010190611d28565b5b509050611d519190611dd5565b5090565b828054600181600116156101000203166002900490600052602060002090601f016020900481019282601f10611d9657805160ff1916838001178555611dc4565b82800160010185558215611dc4579182015b82811115611dc3578251825591602001919060010190611da8565b5b509050611dd19190611dd5565b5090565b611df791905b80821115611df3576000816000905550600101611ddb565b5090565b905600a165627a7a72305820ad551a2e40f26cac47d07301fdc5e7acb19d887d9f35d76305878b86d1f51c980029",
  "source": "pragma solidity 0.4.25;\n\ncontract Teams {\n    \n    struct Team {\n        string TeamName;\n        string firstMemberName;\n        string secondMemberName;\n        string thirdMemberName;\n        string fourthMemberName;\n        uint firstcid;\n        uint secondcid;\n        uint thirdcid;\n        uint fourthcid;\n    }\n    \n    address private owner;\n    string private password;\n    \n    mapping(uint => Team) public Teammapint;\n    mapping(address => Team) public Teammap ;\n    mapping(uint => address) public Teammapaddr;\n    uint public teamcount;\n    mapping(address => string) public PasswordMap;\n    \n    constructor() public {\n        \n        owner = msg.sender;\n        \n    }\n    \n    function setTeam(string Tn,string fn,string sn, string tn,string ftn,uint fid,uint sid,uint tid,uint ftid) public {\n        \n        teamcount++;\n        Teammapint[teamcount] = Team(Tn,fn,sn,tn,ftn,fid,sid,tid,ftid);\n        Teammapaddr[teamcount] = msg.sender;\n        Teammap[msg.sender] = Team(Tn,fn,sn,tn,ftn,fid,sid,tid,ftid);\n        \n    }\n    \n    function setPassword(string pass) public{\n        password=pass;\n    }\n    \n    function getTeam() public view returns (string,string,string,string,string,uint,uint,uint,uint){\n           return (Teammap[msg.sender].TeamName,Teammap[msg.sender].firstMemberName,Teammap[msg.sender].secondMemberName,Teammap[msg.sender].thirdMemberName,Teammap[msg.sender].fourthMemberName,Teammap[msg.sender].firstcid,Teammap[msg.sender].secondcid,Teammap[msg.sender].thirdcid,Teammap[msg.sender].fourthcid);\n    }\n\n    function getCount() public view returns (uint){\n        return teamcount;\n    }\n\n    function getTeambyint(uint i) public view returns (string){\n        return Teammapint[i].TeamName;\n    }\n    \n}",
  "sourcePath": "/home/pratik/Desktop/BlockChain/CrowdFund/contracts/Team.sol",
  "compiler": {
    "name": "solc",
    "version": "0.4.25+commit.59dbf8f1.Emscripten.clang"
  },
  "schemaVersion": "2.0.2",
  "updatedAt": "2019-02-02T17:08:04.813Z"
}